:0400000007EF00F016
:0A0008004D8251ED0FF0DEEF0EF017
:1008000000446174613A200054656D703A200048DC
:10081000756D3A2000434B524600202500204300CE
:0108200000D7
:100822003A6E4B0E3A18D8A45BD020EE01F0455038
:10083200D9264650DA22DF5078EC0FF009C01CF0BE
:100842000AC01DF00BC01EF0940E1F6E880E206EA3
:10085200430E216E09EC08F01CC03BF01DC03CF0B9
:100862001EC03DF03BC02EF03CC02FF03DC030F02A
:1008720045C0D9FF46C0DAFFDF50316E4B0E326EF3
:1008820004EC07F020EE01F04550D9264650DA225A
:10089200DF5078EC0FF009C01CF00AC01DF00BC04D
:1008A2001EF0940E1F6E880E206E430E216E09EC10
:1008B20008F01CC03EF01DC03FF01EC040F03EC01C
:1008C2002EF03FC02FF040C030F045C0D9FF46C0E7
:1008D200DAFFDF50316E4B0E326EA5EC09F01200DA
:1008E200520E3A18D8A477D0660E106EE60E116E2C
:1008F2003F0E126E20EE01F04550D9264650DA2204
:10090200DF5078EC0FF009C00DF00AC00EF00BC0FA
:100912000FF069EC0AF00DC01CF00EC01DF00FC004
:100922001EF0D60E1F6EF50E206E430E216E09ECE0
:1009320008F01CC03BF01DC03CF01EC03DF03BC0A7
:100942002EF03CC02FF03DC030F045C0D9FF46C06C
:10095200DAFFDF50316E520E326E04EC07F0660E93
:10096200106EE60E116E3F0E126E20EE01F0455033
:10097200D9264650DA22DF5078EC0FF009C00DF08C
:100982000AC00EF00BC00FF069EC0AF00DC01CF0AB
:100992000EC01DF00FC01EF0D60E1F6EF50E206E9B
:1009A200430E216E09EC08F01CC03EF01DC03FF062
:1009B2001EC040F03EC02EF03FC02FF040C030F0CD
:1009C20045C0D9FF46C0DAFFDF50316E520E326E9B
:1009D200A5EC09F01200460E3A18D8A477D0660E9C
:1009E200106EE60E116E3F0E126E20EE01F04550B3
:1009F200D9264650DA22DF5078EC0FF009C00DF00C
:100A02000AC00EF00BC00FF069EC0AF00DC01CF02A
:100A12000EC01DF00FC01EF0000E1F6E000E206EE5
:100A2200420E216E09EC08F01CC03BF01DC03CF0E8
:100A32001EC03DF03BC02EF03CC02FF03DC030F058
:100A420045C0D9FF46C0DAFFDF50316E460E326E26
:100A520004EC07F0660E106EE60E116E3F0E126E7B
:100A620020EE01F04550D9264650DA22DF5078ECCC
:100A72000FF009C00DF00AC00EF00BC00FF069ECC8
:100A82000AF00DC01CF00EC01DF00FC01EF0000ECB
:100A92001F6E000E206E420E216E09EC08F01CC083
:100AA2003EF01DC03FF01EC040F03EC02EF03FC0E1
:100AB2002FF040C030F045C0D9FF46C0DAFFDF500A
:100AC200316E460E326EA5EC09F0120020EE01F0F6
:100AD2004550D9264650DA22DF5078EC0FF009C093
:100AE2002EF00AC02FF00BC030F045C0D9FF46C02F
:100AF200DAFFDF50316E430E326E04EC07F020EE67
:100B020001F04550D9264650DA22DF5078EC0FF03A
:100B120009C02EF00AC02FF00BC030F045C0D9FF3B
:100B220046C0DAFFDF50316E430E326EA5EC09F09B
:100B320012008C8057D10DC001F00EC002F0000EE1
:100B4200046E0A0E036E64EC0EF00150156E155021
:100B5200300FA7EC0FF01200000E046E640E036E4D
:100B62000DC001F00EC002F064EC0EF001C006F000
:100B720002C007F0000E096E0A0E086ECCEC0DF0F2
:100B82000650146E0DC001F00EC002F0000E046E8D
:100B92000A0E036E64EC0EF00150156E1450300F05
:100BA200A7EC0FF01550300FA7EC0FF01200030E58
:100BB200046EE80E036E0DC001F00EC002F064EC8C
:100BC2000EF001C006F002C007F0000E096E640EBE
:100BD200086ECCEC0DF006C012F007C013F0000E48
:100BE200046E640E036E0DC001F00EC002F064ECE0
:100BF2000EF001C006F002C007F0000E096E0A0EE8
:100C0200086ECCEC0DF00650146E0DC001F00EC053
:100C120002F0000E046E0A0E036E64EC0EF0015038
:100C2200156E1250300FA7EC0FF01450300FA7ECD6
:100C32000FF01550300FA7EC0FF01200270E046EC4
:100C4200100E036E0DC001F00EC002F064EC0EF047
:100C520001C006F002C007F0030E096EE80E086E2E
:100C6200CCEC0DF006C010F007C011F0030E046EBC
:100C7200E80E036E0DC001F00EC002F064EC0EF03F
:100C820001C006F002C007F0000E096E640E086E85
:100C9200CCEC0DF006C012F007C013F0000E046E8B
:100CA200640E036E0DC001F00EC002F064EC0EF093
:100CB20001C006F002C007F0000E096E0A0E086EAF
:100CC200CCEC0DF00650146E0DC001F00EC002F017
:100CD200000E046E0A0E036E64EC0EF00150156EE7
:100CE2001050300FA7EC0FF01250300FA7EC0FF09E
:100CF2001450300FA7EC0FF01550300FA7EC0FF087
:100D020012000DC006F00EC007F0270E096E100E7D
:100D1200086ECCEC0DF00650300FA7EC0FF0270E4A
:100D2200046E100E036E0DC001F00EC002F064ECF2
:100D32000EF001C006F002C007F0030E096EE80EC5
:100D4200086ECCEC0DF006C010F007C011F0030ED7
:100D5200046EE80E036E0DC001F00EC002F064ECEA
:100D62000EF001C006F002C007F0000E096E640E1C
:100D7200086ECCEC0DF006C012F007C013F0000EA6
:100D8200046E640E036E0DC001F00EC002F064EC3E
:100D92000EF001C006F002C007F0000E096E0A0E46
:100DA200086ECCEC0DF00650146E0DC001F00EC0B2
:100DB20002F0000E046E0A0E036E64EC0EF0015097
:100DC200156E1050300FA7EC0FF01250300FA7EC39
:100DD2000FF01450300FA7EC0FF01550300FA7ECA6
:100DE2000FF012000F50010AD8B4A5D6030AD8B4E6
:100DF200B3D6010AD8B4DBD6070AD8B41FD7010A82
:100E0200D8A412007ED72EC01CF02FC01DF030C017
:100E12001EF056EC0BF01CC038F01DC039F02EC08D
:100E220028F02FC029F030C02AF038C009F039C0AC
:100E32000AF0C2EC0EF009C02BF00AC02CF00BC075
:100E42002DF085EC0EF028C033F029C034F02AC012
:100E520035F0000E106EC80E116E420E126E33C0C7
:100E62000DF034C00EF035C00FF069EC0AF00DC081
:100E72001CF00EC01DF00FC01EF056EC0BF01CC093
:100E820036F01DC037F0540ED2EC0FF0650ED2ECE6
:100E92000FF06D0ED2EC0FF0700ED2EC0FF03A0E96
:100EA200D2EC0FF0200ED2EC0FF039BE06D0395042
:100EB20009E10A0E385CD8B005D03850300FD2ECB8
:100EC2000FF059D039BE06D0395021E1640E385C9A
:100ED200D8B01DD038C007F039C008F0000E0A6E35
:100EE2000A0E096EB7EC0CF00750300FD2EC0FF07F
:100EF20038C001F039C002F0000E046E0A0E036E13
:100F020033EC0DF00150300FD2EC0FF034D038C07A
:100F120007F039C008F0000E0A6E640E096EB7ECD5
:100F22000CF00750300FD2EC0FF0000E046E640E7E
:100F3200036E38C001F039C002F033EC0DF001C08D
:100F420007F002C008F0000E0A6E0A0E096EB7EC36
:100F52000CF00750300FD2EC0FF038C001F039C05E
:100F620002F0000E046E0A0E036E33EC0DF0015017
:100F7200300FD2EC0FF036503710D8B43CD02E0ED2
:100F8200D2EC0FF036C001F037C002F0000E046E52
:100F92000A0E036E33EC0DF001500210D8A40FD0EC
:100FA20036C007F037C008F0000E0A6E0A0E096E4E
:100FB200B7EC0CF00750300FD2EC0FF01CD036C05B
:100FC20007F037C008F0000E0A6E0A0E096EB7EC81
:100FD2000CF00750300FD2EC0FF036C001F037C0E2
:100FE20002F0000E046E0A0E036E33EC0DF0015097
:100FF200300FD2EC0FF0200ED2EC0FF03250D2ECC8
:101002000FF0200ED2EC0FF00A0ED2EC0FF012000D
:101012001EC022F0236A246A1D34223601E3238093
:101022002250276E21C022F0236A246A20342236FD
:1010320001E323802250266E2750D8B40AD02650CE
:10104200275CD8B00DD02750265C226E180E226481
:1010520007D01FC01CF020C01DF021C01EF01200DE
:101062002650D8B40AD02750265CD8B00DD02650CE
:10107200275C226E180E226407D01CC01CF01DC013
:101082001DF01EC01EF01200060E256E1EBE258E1D
:1010920021BE258C1D8EFF0E1C16FF0E1D16000E86
:1010A2001E16208EFF0E1F16FF0E2016000E211692
:1010B2002650275CD8B01BD0D8901F362036213658
:1010C200260627502618D8B40DD0250625C022F0B2
:1010D200070E2216D8B406D0EFD7D8901E321D3292
:1010E2001C32272A26502718D8B41FD0F6D72750EB
:1010F200265CD8B01AD0D8901C361D361E3627066C
:1011020027502618D8B40DD0250625C022F0070E88
:101112002216D8B406D0EFD7D890213220321F320F
:10112200262A26502718D8A4F7D725AE0CD0FF0EB2
:101132001C1AFF0E1D1AFF0E1E1A010E1C26000E8F
:101142001D22000E1E2225AC0CD0FF0E1F1AFF0E10
:10115200201AFF0E211A010E1F26000E2022000E59
:101162002122000E256E1C501F261D5020221E50CB
:10117200212221AE0ED0FF0E1F1AFF0E201AFF0EE3
:10118200211A010E1F26000E2022000E2122010E1E
:10119200256E1FC001F020C002F021C003F027C05D
:1011A20004F025C005F0BFEC0BF001C01CF002C03A
:1011B2001DF003C01EF01200700ED36E030E416EBE
:1011C200980EE82EFED7412EFCD7000E956E000E2B
:1011D2008C6E000E966E000E8D6E8290200EAC6E9E
:1011E200900EAB6E000EB86E0C0EAF6E9E9A9D8A7C
:1011F200D09EF28C060ED56EC20ED76EF70ED66E4C
:10120200F294F28AF28E010EC26E0E0EC16E8D0E35
:10121200C06E0F0E926E94948B94000E896E040E23
:101222009BEC0FF069EC0CF0000E026E000E016EEA
:10123200C4EC0FF0476E010E066EF5EC0DF00A0ECF
:10124200476006D0010E0F6E4750E3EC0AF005D05E
:10125200020E0F6E4750E3EC0AF01D0E066EF5EC1F
:101262000DF00B0E426E260E416E5E0EE82EFED77C
:10127200412EFCD7422EFAD7D58E16EC0CF005C0C3
:1012820045F006C046F0000E026E000E016E20EE22
:1012920001F04550D9264650DA22DF50036E65EC44
:1012A2000FF0BCEC0FF001C043F002C044F020EE9E
:1012B20001F04550D9264650DA22DF509EEC0DF05F
:1012C2004304020E4458D8B002D0899801D08988CC
:1012D20080B61ED080CF41F0060E4116D8A402D0AF
:1012E200430E14D08050060B020AD8A402D04B0E33
:1012F2000DD08050060B040AD8A402D0520E06D09C
:101302008050060B060AD8A40FD0460E4B6E0CD0A6
:10131200150E046E4B501CEC0EF0416E4130D8B0ED
:1013220002D08B8401D08B944B5011EC04F0070E49
:10133200426E3E0E416E600EE82EFED7412EFCD765
:10134200422EFAD700D099D72EC01CF02FC01DF024
:1013520030C01EF056EC0BF01CC036F01DC037F04A
:101362002EC028F02FC029F030C02AF036C009F074
:1013720037C00AF0C2EC0EF009C02BF00AC02CF004
:101382000BC02DF085EC0EF028C033F029C034F0EC
:101392002AC035F0000E106EC80E116E420E126E8B
:1013A20033C00DF034C00EF035C00FF069EC0AF016
:1013B2000DC01CF00EC01DF00FC01EF056EC0BF05D
:1013C2001CC038F01DC039F0B2EC0FF0080E066EEA
:1013D200F5EC0DF02EC001F02FC002F030C003F08A
:1013E200000E046E200E056E410E066EF9EC0CF036
:1013F200D8B006D0010E0F6E3650E3EC0AF01ED0C4
:101402002EC001F02FC002F030C003F0000E046EB7
:10141200C80E056E420E066EF9EC0CF0D8B006D07E
:10142200020E0F6E3650E3EC0AF008D036C00DF013
:1014320037C00EF0030E0F6E9AEC05F038503910DB
:10144200D8B426D02E0EA7EC0FF038C001F039C068
:1014520002F0000E046E0A0E036E33EC0DF0015022
:101462000210D8A410D0010E0F6E38C007F039C098
:1014720008F0000E0A6E0A0E096EB7EC0CF0075067
:10148200E3EC0AF005D0020E0F6E3850E3EC0AF0DE
:10149200200EA7EC0FF03250A7EC0FF0C00EF7ECC5
:1014A2000EF00F0E066EF5EC0DF00A0E316006D04E
:1014B200010E0F6E3150E3EC0AF005D0020E0F6EF2
:1014C2003150E3EC0AF01A0E066EF5EC0DF0120044
:1014D2000FC013F0146A156A0E34133601E3148038
:1014E2001350166E1650D8A407D0000E0D6E000EC3
:1014F2000E6E000E0F6E120012C013F0146A156AFF
:101502001134133601E3148013501B6E1B50D8A400
:1015120007D0000E0D6E000E0E6E000E0F6E120042
:101522001B507B0F16260FC01BF012501B1A800E89
:101532001B160E8E118EFF0E1016FF0E1116000EC8
:101542001216000E176E000E186E000E196E070EA0
:101552001A6E0DA006D010501726115018221250E4
:101562001922D8900F320E320D32D8901036113621
:1015720012361A2EEED7090E1A6E0DA006D0105092
:1015820017261150182212501922D8900F320E32FB
:101592000D32D8901932183217321A2EEED717C0E0
:1015A20001F018C002F019C003F016C004F01BC00D
:1015B20005F0BFEC0BF001C00DF002C00EF003C04D
:1015C2000FF01200136E8C8065D00A0E016E13505C
:1015D20028EC0FF0126E1250300F41EC0EF0CBECF3
:1015E2000FF0040E6BEC0DF012000A0E056E640E85
:1015F200016E135028EC0FF0A5EC0EF0116E0A0EDE
:10160200016E135028EC0FF0126E1150300F41ECA6
:101612000EF0CBEC0FF0040E6BEC0DF01250300F0D
:1016220041EC0EF0CBEC0FF0040E6BEC0DF012005F
:10163200640E056E1350A5EC0EF0106E0A0E056EC8
:10164200640E016E135028EC0FF0A5EC0EF0116E33
:101652000A0E016E135028EC0FF0126E1050300F6C
:1016620041EC0EF0CBEC0FF0040E6BEC0DF01150D0
:10167200300F41EC0EF0CBEC0FF0040E6BEC0DF0E2
:101682001250300F41EC0EF0CBEC0FF0040E6BEC6D
:101692000DF012000F50010AD8B497D7030AD8B43C
:1016A200A4D7010AD8A41200C3D71EC020F0216A11
:1016B200226A1D34203601E3218020502A6E2A50EE
:1016C200D8A409D0000E1C6E000E1D6E000E1E6EF8
:1016D200000E1F6E1200170E206E1CC021F01DC0DE
:1016E20022F01EC023F02028246E04D0D89023328A
:1016F20022322132242EFAD72150256E1D8EFF0E62
:101702001C16FF0E1D16000E1E161C50266E1D50B6
:10171200276E1E50286E296A8E0E2A5E2AAE0DD0C2
:101722002A50800A8F0FD8A0CDD7D89029322832DC
:10173200273226322A3EF9D70DD0170E2A6407D057
:10174200C1D7D89026362736283629362A062A5077
:10175200D8A4F7D72550D8B408D0291E281E271E92
:10176200266C000E27222822292226C01CF027C020
:101772001DF028C01EF029C01FF012000450D8B47A
:1017820005D0015002100310D8A40CD0000E016E37
:10179200000E026E000E036E1200042AD89003326D
:1017A20002320132000E0114066E000E0214076EA0
:1017B200FE0E0314086E065007100810D8B40CD0A1
:1017C200ECD7042A010E0126000E0222000E03228B
:1017D200D890033202320132000E0114066E000E5E
:1017E2000214076EFF0E0314086E0650071008104D
:1017F200D8B406D0E6D70406D890013602360336AE
:1018020002BE03D0020E0460F6D704A0029ED89056
:101812000432045003120550D8A4038E01C001F013
:1018220002C002F003C003F01200000E086E949092
:101832002F0E076EC00EE82EFED7072EFCD794801F
:1018420082B0FED71A0EE82EFED700D082A0082A58
:10185200350EE82EFED700F082B0082A82B0FED7FD
:101862008AEC0FF009C0D9FF0AC0DAFFDF6E8AECFA
:101872000FF020EE01F00950D9260A50DA228AEC44
:101882000FF0DF6E8AEC0FF020EE02F00950D9263D
:101892000A50DA228AEC0FF0DF6E20EE01F00950D6
:1018A200D9260A50DA22DF504A6E09C0D9FF0AC08F
:1018B200DAFFDF50496E20EE02F00950D9260A50B5
:1018C200DA22DF50486E09C005F00AC006F01200A5
:1018D2008C90040E4C18D8A404D08C500F0B3009F5
:1018E20001D03F0E8C6ECBEC0FF0010E6BEC0DF0C5
:1018F200040E4C18D8A404D08C500F0B300901D020
:101902003F0E8C6ECBEC0FF0030E6BEC0DF0040E61
:101912004C18D8A404D08C500F0B300901D03F0EC4
:101922008C6ECBEC0FF0040E6BEC0DF0040E4C1829
:10193200D8A411D08C500F0B20098C6ECBEC0FF079
:10194200040E6BEC0DF02F0E41EC0EF0CBEC0FF011
:10195200040E6BEC0DF0B2EC0FF00F0E41EC0EF03A
:10196200CBEC0FF0040E6BEC0DF01200000E0C6EBF
:101972000AAE06D0096C0A1ED8B00A2A010E0C6EF5
:1019820008AE06D0076C081ED8B0082A010E0C1A41
:10199200000E0E6E000E0D6E09500A10D8B41CD047
:1019A200010E0B6E04D0D89009360A360B2A0AAE05
:1019B200FAD7D8900D360E360950075C0A500858EF
:1019C200D8A005D00950075E0A50085A0D80D89059
:1019D2000A3209320B2EEDD70C50D8B404D00D6C5C
:1019E2000E1ED8B00E2A0DC007F00EC008F012006D
:1019F20003AE0FD0000E076E000E086E800E096E49
:101A02000150075C016E02500858026E03500958DB
:101A1200036E06AE0FD0000E076E000E086E800E2B
:101A2200096E0450075C046E05500858056E065096
:101A32000958066E000E011A000E021A800E031AD1
:101A4200000E041A000E051A800E061A0450015CDC
:101A52000550025806500358D8B002D0D890120050
:101A6200D8801200000E066E02AE06D0016C021E75
:101A7200D8B0022A010E066E04AE04D0036C041E16
:101A8200D8B0042A03500410D8B418D0010E056E41
:101A920004D0D89003360436052A04AEFAD7035090
:101AA200015C04500258D8A004D00350015E0450D7
:101AB200025AD89004320332052EF1D70650D8B418
:101AC20004D0016C021ED8B0022A01C001F002C08B
:101AD20002F01200026E23D0270E016EF50EE82EE0
:101AE200FED7012EFCD700F01200030E016E980EF5
:101AF200E82EFED7012EFCD7B60E00D000D0E82E7D
:101B0200FCD700D000D000D01200420EE82EFED743
:101B120000D012001A0EE82EFED700D0120002509A
:101B2200010AD8B4D9D7030AD8B4DFD7010AD8B486
:101B3200ECD7070AD8A41200EDD7016E160E016089
:101B420003D0000E8D6E1200190E016003D0050E37
:101B52008D6E12001C0E016003D0040E8D6E1200F9
:101B62001F0E016003D0060E8D6E1200220E016060
:101B720003D0020E8D6E1200250E016003D0030EFB
:101B82008D6E1200280E016003D0010E8D6E1200C0
:101B9200070E8D6E1200000E0B6E000E0A6E0850BC
:101BA2000910D8B41CD0010E0C6E04D0D89008369F
:101BB20009360C2A09AEFAD7D8900A360B360850E5
:101BC200065C09500758D8A005D00850065E095097
:101BD200075A0A80D890093208320C2EEDD70AC073
:101BE20006F00BC007F0120006C001F03DEC0FF04A
:101BF20001C008F002C009F0000E0C6E000E0B6E60
:101C02000FD006500B24076E07C0F6FF080EF76EC2
:101C12000800F5CF0AF00A50A7EC0FF00B4A0C2A85
:101C220008500B5C0C50800A076E0950800A075856
:101C3200D8B01200E6D7066E000E076E000E096ECF
:101C4200000E086E11D004500824056E05C0F6FF80
:101C5200080EF76E0800F5500618D8A403D0010E3E
:101C6200076E0CD0084A092A04C001F03DEC0FF0BF
:101C72000150085C02500958D8A0E5D7075012005D
:101C8200046E040E4C18D8A417D004C003F0F00E52
:101C920003168C500F0B03108C6ECBEC0FF0010E61
:101CA2006BEC0DF004C003F0033AF00E03168C50F7
:101CB2000F0B03108C6E1200080E4C18D8A41200E1
:101CC20004C08CFF120003500410D8B418D0010EC7
:101CD200056E04D0D89003360436052A04AEFAD72E
:101CE2000350015C04500258D8A004D00350015E96
:101CF2000450025AD89004320332052EF1D701C0A3
:101D020001F002C002F012002B502C102D10D8B49A
:101D120006D0000E2B1A000E2C1A800E2D1A28C087
:101D22001CF029C01DF02AC01EF02BC01FF02CC0D1
:101D320020F02DC021F009EC08F01CC028F01DC0D5
:101D420029F01EC02AF01200066E000E086E055021
:101D5200D8B415D0010E076E03D0D8900536072AE5
:101D620005AEFBD7D89008360550065CD8A003D044
:101D72000550065E0880D8900532072EF3D708502A
:101D82001200000E0C6E0AAE06D0096C0A1ED8B004
:101D92000A2A010E0C6E09C001F00AC002F0036AA1
:101DA2008E0E046E0CC005F0BFEC0BF001C009F002
:101DB20002C00AF003C00BF01200B00EF66E1F0E46
:101DC200F76E000EF86E0900F5CF4BF00900F5CF63
:101DD2004CF000EE43F0080EEE6AE806FDE14D908D
:101DE2004D92000EF86E0001DDEF08F0056E8C904A
:101DF2000504D8A403D0B2EC0FF012000550FE0B7C
:101E0200020AD8A403D0D9EC0FF01200055041EC1D
:101E12000EF0CBEC0FF0040E6BEC0DF01200000E86
:101E2200016E82A0FED7080EE82EFED700D082A057
:101E320002D0000E016E0E0EE82EFED700D082A058
:101E420004D0010E016E82B0FED701501200026E64
:101E5200080E036E000E046ED89002340434046E31
:101E6200D89002360150045CD8A002D00150045E22
:101E7200032EF2D70450120001C003F001D0032A4E
:101E820003C0F6FF080EF76E0800F5500009D8A44B
:101E9200F6D70150035C016E026A01BE020612000F
:101EA20006009EAA03D0AECF4BF09E9AF2A40AD0AF
:101EB200C20ED76EF70ED66EF29489BA02D0898A14
:101EC20001D0899A4D92110001C0A9FF03C0A8FF59
:101ED200A69EA69CA684F29E550EA76EAA0EA76E7B
:101EE200A682F28EA1A8FED7A198A69412000C6E2B
:101EF2000C50016E026A036A8E0E046E000E056EAD
:101F0200BFEC0BF001C009F002C00AF003C00BF0F5
:101F12001200000E036E080E046E10EC0FF0026E3B
:101F2200035003240210036E04060450D8A4F5D70C
:101F320003501200016E040E0118D8B404D0080E2A
:101F42000118D8A4120001C04CF01200056E8C805A
:101F5200055041EC0EF0CBEC0FF0040E6BEC0DF0E3
:101F620012008C90010E41EC0EF0CBEC0FF0020E41
:101F72006BEC0DF01200C282C2B2FED7C3CF01F0E9
:101F8200C4CF02F0120001C0A9FFA69EA69CA680A3
:101F9200A85012008C821A0EE82EFED700D08C9226
:101FA2001200016EACA2FED701C0ADFF12004308C1
:021FB20012001B
:020000040020DA
:08000000FFFFFFFFFFFFFFFF00
:020000040030CA
:0E00000000091F1FFF8181FF0FC00FE00F409E
:00000001FF
